:020000040800F2
:100000000030002089080008690800086B08000813
:1000100000000000000000000000000000000000E0
:100020000000000000000000000000006D08000853
:1000300000000000000000006F08000871080008C0
:10004000D908000800000000D9080008D9080008F5
:10005000D9080008D9080008D9080008D9080008FC
:1000600000000000D9080008D9080008D9080008D5
:10007000D9080008D9080008D908000800000000C5
:10008000D90800080000000000000000D90800089E
:1000900000000000D9080008D9080008D9080008A5
:1000A00000000000D908000800000000D90800087E
:1000B000D908000800000000000000000000000057
:1000C000002934D00123002210B488422CD301240B
:1000D0002407A14204D2814202D209011B01F8E7A0
:1000E000E400A14204D2814202D249005B00F8E759
:1000F000884201D3401A1A434C08A04202D3001B85
:100100005C0822438C08A04202D3001B9C082243B7
:10011000CC08A04202D3001BDC082243002803D0F5
:100120001B0901D00909E3E7100010BC704701B5B5
:10013000002000F00BF802BD0029F8D003B5FFF74E
:10014000C1FF0EBC4243891A1847C0467047C046DB
:1001500010B5064C2378002B07D1054B002B02D09D
:10016000044800E000BF0123237010BD0C000020F4
:100170000000000034090008044B10B5002B03D028
:100180000349044800E000BF10BDC0460000000065
:10019000100000203409000872B6FEE710B58CB0DC
:1001A00005AC1C220021200000F097FB1422002146
:1001B000684600F092FB134A136807218B431360D3
:1001C00002230593FE33089380235B0109934023A8
:1001D0000A93200000F0F8F800280ED168460723A3
:1001E000009300230193029303930493002100F0F2
:1001F00079FA002803D10CB010BDFFF7CDFFFFF74F
:10020000CBFFC0460020024010B500F039F8FFF7E0
:10021000C5FFA0202021C00500F0B6F8FA2080001C
:1002200000F04CF8F5E7000010B50400114B197808
:10023000002901D1012010BDFA208000FFF740FF06
:1002400001000D4B1868FFF73BFF00F099F80028FC
:100250000DD1032C01D90120EDE70130002221004E
:10026000404200F089F8054B1C600020E3E70120C4
:10027000E1E7C04600000020080000200400002044
:1002800010B50320FFF7D0FF041E02D00124200088
:1002900010BD00F081F8FAE7034B1B78034A1168A0
:1002A0005B1813607047C046000000202800002043
:1002B000014B18687047C0462800002070B5040044
:1002C000FFF7F6FF0500631C02D0044B1B78E4180F
:1002D000FFF7EEFF401BA042FAD370BD00000020E4
:1002E00070B5002811DB8308134DC0339B005C59A7
:1002F00003221040C000FC3216008640B44389013E
:100300000A40824022435A5170BD0F230340083BEC
:100310009B0806339B00094A944663445C680322A9
:100320001040C000FC3215008540AC4389010A40F2
:10033000824022435A60E7E700E100E000ED00E080
:10034000013880235B0498420FD2094A5060094863
:10035000036A1B021B0AC02109060B430362002328
:10036000936007331360002070470120FCE7C0460C
:1003700010E000E000ED00E010B5FFF7B1FF10BDA8
:1003800010B5FFF7DDFF10BD426913000B401B04E1
:1003900091430B438361704782B00A4B196C012271
:1003A00011431964196C0A400092009ADA6B80219B
:1003B00049050A43DA63DB6B0B400193019B02B0F2
:1003C0007047C0460010024070B5041E00D139E1EC
:1003D0000368DB072CD5A14B9A6838231340082B00
:1003E00022D043688022520293422ED0A022D20211
:1003F000934231D0994B1A6899490A401A601A6899
:1004000098490A401A606368002B31D0FFF750FF0B
:100410000500924B1B689B030AD4FFF749FF401B62
:100420006428F6D903200EE14368002B00D10BE1CC
:1004300023689B0747D5894B9B6838221A4261D1B4
:10044000E368002B22D10120FDE0844A116880235B
:100450005B020B431360D6E7804B19688022D202FF
:100460000A431A601968802252020A431A60CAE7D6
:10047000FFF71EFF0500794B1B689B03D8D5FFF7DC
:1004800017FF401B6428F6D90320DCE0734B5A6841
:1004900075490A40616909020A435A601A6873493A
:1004A0000A4021690A431A601B68DB0A07221A40C6
:1004B0006F4BD3406F4A13606F4B1868FFF7B4FE61
:1004C000002800D0C2E023681B0757D5634B9A6809
:1004D00038231340182B4ED0A369002B77D05F4AE6
:1004E000136E01210B431366FFF7E2FE05005B4B21
:1004F0001B6E9B0742D4FFF7DBFE401B0228F6D998
:100500000320A0E0E368002B22D0544A1368574927
:100510000B4021690B431360116880235B000B4380
:100520001360FFF7C5FE05004C4B1B685B0506D446
:10053000FFF7BEFE401B0228F6D9032083E047499F
:100540004B68494A13406269120213434B60BAE791
:10055000424A136849490B401360FFF7A9FE0500A2
:100560003E4B1B685B05AED5FFF7A2FE401B022881
:10057000F6D9032067E0A369002B69D023685B07E5
:1005800068D5364B9A6838231340202B32D0A368A5
:10059000012B34D0052B38D0304BDA6D01218A4342
:1005A000DA65DA6D03318A43DA65A368002B38D047
:1005B000FFF77EFE0400294BDB6D9B072FD4FFF76E
:1005C00077FE001B2E4B9842F5D903203BE0234ACF
:1005D000136E01218B431366FFF76AFE05001F4B64
:1005E0001B6E9B07CAD5FFF763FE401B0228F6D996
:1005F000032028E0A368002B2ED0002023E0174A18
:10060000D36D01210B43D365CFE7144BDA6D042181
:100610000A43DA65DA6D03390A43DA65C5E7002073
:1006200011E0FFF745FE04000C4BDB6D9B0707D57F
:10063000FFF73EFE001B124B9842F5D9032002E063
:10064000002000E0012070BD0120FCE70120FAE756
:100650000120F8E70020F6E70120F4E7001002404F
:10066000FFFFFEFFFFFFFBFFFF80FFFFFFC7FFFF56
:10067000006CDC020800002004000020FFFEFFFFE9
:1006800088130000144B9B6838221A4207D1124B82
:100690001A68D20A072313401048D84070470E4BFF
:1006A0009A6838231340082B10D00B4B9A683823D4
:1006B0001340202B0CD0084B9A6838231340182B7A
:1006C00001D00020EAE7FA20C001E7E70448E5E7A7
:1006D00080200002E2E7C04600100240006CDC020D
:1006E00000127A0070B504000D00002800D1A4E0CB
:1006F000544B1A68072313408B4221D323689A076F
:1007000010D55B0707D550498A68504B1A40B02373
:100710001B0113438B604C4A93684D490B40E168C1
:100720000B4393602368DB074CD56368012B1ED015
:10073000002B39D1444A126852051CD4012064E0D0
:10074000404A136807218B432B431360FFF7B0FD2A
:1007500006003C4B1A6807231340AB42CED0FFF78C
:10076000A7FD801B3B4A9042F3D903204DE0364A57
:100770001268920363D534498A6807208243134381
:100780008B60FFF795FD06002F4B9B6838221A40BF
:100790006368DB009A4215D0FFF78AFD801B2D4B62
:1007A0009842F1D9032030E0032B05D0264AD26DC0
:1007B0009207E0D4012028E0234A126E9207DAD48F
:1007C000012022E01F4B1A6807231340AB421DD8BB
:1007D00023685B0706D51C4A93681F490B402169B3
:1007E0000B439360FFF74EFF174B9A68120A0F23D3
:1007F00013401A4A9B009A581F231340D840184BA5
:100800001860184B1868FFF70FFD70BD0D4A13688C
:1008100007218B432B431360FFF74AFD0600094B6A
:100820001A6807231340AB42D2D0FFF741FD801B6B
:10083000084B9842F3D90320E7E70120E5E70120C0
:10084000E3E7C0460020024000100240FF84FFFFA3
:10085000FFF0FFFF88130000FF8FFFFF4C09000827
:100860000800002004000020FEE7FEE77047704704
:1008700010B5FFF711FD10BD024B802212059A60E2
:100880007047C04600ED00E00D488546FFF7F4FFD5
:10089000002103E00B4B5B58435004310A480B4BDB
:1008A00042189A42F6D30A4A02E000231360043247
:1008B000084B9A42F9D300F019F8FFF7A5FCFEE7C0
:1008C0000030002094090008000000200C000020E7
:1008D0000C0000202C000020FEE703008218934249
:1008E00000D1704719700133F9E7000070B5002698
:1008F0000C4C0D4D641BA410A64209D1002600F03B
:1009000019F80A4C0A4D641BA410A64205D170BD0B
:10091000B300EB5898470136EEE7B300EB58984721
:100920000136F2E78C0900088C09000890090008DC
:100930008C090008F8B5C046F8BC08BC9E46704754
:0C094000F8B5C046F8BC08BC9E467047E5
:10094C00000000000000000000000000000000009B
:10095C00000000000000000000000000000000008B
:10096C000100000002000000030000000400000071
:10097C00060000000700000008000000090000004D
:04098C0079010008E5
:040990005101000809
:0C0994000100000004000000001BB70080
:04000005080008895E
:00000001FF
